{
  "contractName": "DEXExchange",
  "abi": [
    {
      "constant": false,
      "inputs": [],
      "name": "unpause",
      "outputs": [],
      "payable": false,
      "stateMutability": "nonpayable",
      "type": "function"
    },
    {
      "constant": true,
      "inputs": [],
      "name": "paused",
      "outputs": [
        {
          "name": "",
          "type": "bool"
        }
      ],
      "payable": false,
      "stateMutability": "view",
      "type": "function"
    },
    {
      "constant": true,
      "inputs": [],
      "name": "erc20Interface",
      "outputs": [
        {
          "name": "",
          "type": "address"
        }
      ],
      "payable": false,
      "stateMutability": "view",
      "type": "function"
    },
    {
      "constant": false,
      "inputs": [],
      "name": "renounceOwnership",
      "outputs": [],
      "payable": false,
      "stateMutability": "nonpayable",
      "type": "function"
    },
    {
      "constant": false,
      "inputs": [],
      "name": "pause",
      "outputs": [],
      "payable": false,
      "stateMutability": "nonpayable",
      "type": "function"
    },
    {
      "constant": true,
      "inputs": [],
      "name": "owner",
      "outputs": [
        {
          "name": "",
          "type": "address"
        }
      ],
      "payable": false,
      "stateMutability": "view",
      "type": "function"
    },
    {
      "constant": true,
      "inputs": [
        {
          "name": "",
          "type": "bytes32"
        }
      ],
      "name": "tokens",
      "outputs": [
        {
          "name": "",
          "type": "address"
        }
      ],
      "payable": false,
      "stateMutability": "view",
      "type": "function"
    },
    {
      "constant": true,
      "inputs": [
        {
          "name": "",
          "type": "uint256"
        }
      ],
      "name": "transactions",
      "outputs": [
        {
          "name": "contract_",
          "type": "address"
        },
        {
          "name": "to_",
          "type": "address"
        },
        {
          "name": "amount_",
          "type": "uint256"
        },
        {
          "name": "failed_",
          "type": "bool"
        }
      ],
      "payable": false,
      "stateMutability": "view",
      "type": "function"
    },
    {
      "constant": true,
      "inputs": [
        {
          "name": "",
          "type": "address"
        },
        {
          "name": "",
          "type": "uint256"
        }
      ],
      "name": "transactionIndexesToSender",
      "outputs": [
        {
          "name": "",
          "type": "uint256"
        }
      ],
      "payable": false,
      "stateMutability": "view",
      "type": "function"
    },
    {
      "constant": false,
      "inputs": [
        {
          "name": "_newOwner",
          "type": "address"
        }
      ],
      "name": "transferOwnership",
      "outputs": [],
      "payable": false,
      "stateMutability": "nonpayable",
      "type": "function"
    },
    {
      "payable": true,
      "stateMutability": "payable",
      "type": "fallback"
    },
    {
      "anonymous": false,
      "inputs": [
        {
          "indexed": true,
          "name": "from_",
          "type": "address"
        },
        {
          "indexed": true,
          "name": "to_",
          "type": "address"
        },
        {
          "indexed": false,
          "name": "amount_",
          "type": "uint256"
        }
      ],
      "name": "TransferSuccessful",
      "type": "event"
    },
    {
      "anonymous": false,
      "inputs": [
        {
          "indexed": true,
          "name": "from_",
          "type": "address"
        },
        {
          "indexed": true,
          "name": "to_",
          "type": "address"
        },
        {
          "indexed": false,
          "name": "amount_",
          "type": "uint256"
        }
      ],
      "name": "TransferFailed",
      "type": "event"
    },
    {
      "anonymous": false,
      "inputs": [],
      "name": "Pause",
      "type": "event"
    },
    {
      "anonymous": false,
      "inputs": [],
      "name": "Unpause",
      "type": "event"
    },
    {
      "anonymous": false,
      "inputs": [
        {
          "indexed": true,
          "name": "previousOwner",
          "type": "address"
        }
      ],
      "name": "OwnershipRenounced",
      "type": "event"
    },
    {
      "anonymous": false,
      "inputs": [
        {
          "indexed": true,
          "name": "previousOwner",
          "type": "address"
        },
        {
          "indexed": true,
          "name": "newOwner",
          "type": "address"
        }
      ],
      "name": "OwnershipTransferred",
      "type": "event"
    },
    {
      "constant": false,
      "inputs": [
        {
          "name": "symbol_",
          "type": "bytes32"
        },
        {
          "name": "address_",
          "type": "address"
        }
      ],
      "name": "addNewToken",
      "outputs": [
        {
          "name": "",
          "type": "bool"
        }
      ],
      "payable": false,
      "stateMutability": "nonpayable",
      "type": "function"
    },
    {
      "constant": false,
      "inputs": [
        {
          "name": "symbol_",
          "type": "bytes32"
        }
      ],
      "name": "removeToken",
      "outputs": [
        {
          "name": "",
          "type": "bool"
        }
      ],
      "payable": false,
      "stateMutability": "nonpayable",
      "type": "function"
    },
    {
      "constant": false,
      "inputs": [
        {
          "name": "symbol_",
          "type": "bytes32"
        },
        {
          "name": "to_",
          "type": "address"
        },
        {
          "name": "amount_",
          "type": "uint256"
        }
      ],
      "name": "transferTokens",
      "outputs": [],
      "payable": false,
      "stateMutability": "nonpayable",
      "type": "function"
    },
    {
      "constant": false,
      "inputs": [
        {
          "name": "beneficiary",
          "type": "address"
        }
      ],
      "name": "withdraw",
      "outputs": [],
      "payable": true,
      "stateMutability": "payable",
      "type": "function"
    }
  ],
  "bytecode": "0x608060405260008060146101000a81548160ff021916908315150217905550336000806101000a81548173ffffffffffffffffffffffffffffffffffffffff021916908373ffffffffffffffffffffffffffffffffffffffff16021790555061132a8061006d6000396000f3006080604052600436106100d0576000357c0100000000000000000000000000000000000000000000000000000000900463ffffffff1680631f9988c9146100d2578063224e74621461012d5780633f4ba83a1461017657806351cff8d91461018d5780635c975abb146101c35780635fd295d7146101f2578063715018a6146102495780638456cb59146102605780638da5cb5b14610277578063904194a3146102ce5780639ace38c21461033f578063b082443b146103f1578063c47964371461045a578063f2fde38b146104bb575b005b3480156100de57600080fd5b5061012b6004803603810190808035600019169060200190929190803573ffffffffffffffffffffffffffffffffffffffff169060200190929190803590602001909291905050506104fe565b005b34801561013957600080fd5b5061015c6004803603810190808035600019169060200190929190505050610b31565b604051808215151515815260200191505060405180910390f35b34801561018257600080fd5b5061018b610c36565b005b6101c1600480360381019080803573ffffffffffffffffffffffffffffffffffffffff169060200190929190505050610cf4565b005b3480156101cf57600080fd5b506101d8610dcc565b604051808215151515815260200191505060405180910390f35b3480156101fe57600080fd5b50610207610ddf565b604051808273ffffffffffffffffffffffffffffffffffffffff1673ffffffffffffffffffffffffffffffffffffffff16815260200191505060405180910390f35b34801561025557600080fd5b5061025e610e05565b005b34801561026c57600080fd5b50610275610f07565b005b34801561028357600080fd5b5061028c610fc7565b604051808273ffffffffffffffffffffffffffffffffffffffff1673ffffffffffffffffffffffffffffffffffffffff16815260200191505060405180910390f35b3480156102da57600080fd5b506102fd6004803603810190808035600019169060200190929190505050610fed565b604051808273ffffffffffffffffffffffffffffffffffffffff1673ffffffffffffffffffffffffffffffffffffffff16815260200191505060405180910390f35b34801561034b57600080fd5b5061036a60048036038101908080359060200190929190505050611020565b604051808573ffffffffffffffffffffffffffffffffffffffff1673ffffffffffffffffffffffffffffffffffffffff1681526020018473ffffffffffffffffffffffffffffffffffffffff1673ffffffffffffffffffffffffffffffffffffffff1681526020018381526020018215151515815260200194505050505060405180910390f35b3480156103fd57600080fd5b506104406004803603810190808035600019169060200190929190803573ffffffffffffffffffffffffffffffffffffffff1690602001909291905050506110ac565b604051808215151515815260200191505060405180910390f35b34801561046657600080fd5b506104a5600480360381019080803573ffffffffffffffffffffffffffffffffffffffff1690602001909291908035906020019092919050505061116d565b6040518082815260200191505060405180910390f35b3480156104c757600080fd5b506104fc600480360381019080803573ffffffffffffffffffffffffffffffffffffffff16906020019092919050505061119d565b005b60008060008060149054906101000a900460ff1615151561051e57600080fd5b600060046000886000191660001916815260200190815260200160002060009054906101000a900473ffffffffffffffffffffffffffffffffffffffff1673ffffffffffffffffffffffffffffffffffffffff161415151561057f57600080fd5b60008411151561058e57600080fd5b60046000876000191660001916815260200190815260200160002060009054906101000a900473ffffffffffffffffffffffffffffffffffffffff16925033915082600560006101000a81548173ffffffffffffffffffffffffffffffffffffffff021916908373ffffffffffffffffffffffffffffffffffffffff16021790555060026080604051908101604052808573ffffffffffffffffffffffffffffffffffffffff1681526020018773ffffffffffffffffffffffffffffffffffffffff168152602001868152602001600115158152509080600181540180825580915050906001820390600052602060002090600402016000909192909190915060008201518160000160006101000a81548173ffffffffffffffffffffffffffffffffffffffff021916908373ffffffffffffffffffffffffffffffffffffffff16021790555060208201518160010160006101000a81548173ffffffffffffffffffffffffffffffffffffffff021916908373ffffffffffffffffffffffffffffffffffffffff1602179055506040820151816002015560608201518160030160006101000a81548160ff02191690831515021790555050509050600160008373ffffffffffffffffffffffffffffffffffffffff1673ffffffffffffffffffffffffffffffffffffffff168152602001908152602001600020600182039080600181540180825580915050906001820390600052602060002001600090919290919091505550600560009054906101000a900473ffffffffffffffffffffffffffffffffffffffff1673ffffffffffffffffffffffffffffffffffffffff1663dd62ed3e83306040518363ffffffff167c0100000000000000000000000000000000000000000000000000000000028152600401808373ffffffffffffffffffffffffffffffffffffffff1673ffffffffffffffffffffffffffffffffffffffff1681526020018273ffffffffffffffffffffffffffffffffffffffff1673ffffffffffffffffffffffffffffffffffffffff16815260200192505050602060405180830381600087803b1580156108a757600080fd5b505af11580156108bb573d6000803e3d6000fd5b505050506040513d60208110156108d157600080fd5b8101908080519060200190929190505050841115610953578473ffffffffffffffffffffffffffffffffffffffff168273ffffffffffffffffffffffffffffffffffffffff167fbf182be802245e8ed88e4b8d3e4344c0863dd2a70334f089fd07265389306fcf866040518082815260200191505060405180910390a3600080fd5b600560009054906101000a900473ffffffffffffffffffffffffffffffffffffffff1673ffffffffffffffffffffffffffffffffffffffff166323b872dd8387876040518463ffffffff167c0100000000000000000000000000000000000000000000000000000000028152600401808473ffffffffffffffffffffffffffffffffffffffff1673ffffffffffffffffffffffffffffffffffffffff1681526020018373ffffffffffffffffffffffffffffffffffffffff1673ffffffffffffffffffffffffffffffffffffffff1681526020018281526020019350505050602060405180830381600087803b158015610a4c57600080fd5b505af1158015610a60573d6000803e3d6000fd5b505050506040513d6020811015610a7657600080fd5b8101908080519060200190929190505050506000600260018303815481101515610a9c57fe5b906000526020600020906004020160030160006101000a81548160ff0219169083151502179055508473ffffffffffffffffffffffffffffffffffffffff168273ffffffffffffffffffffffffffffffffffffffff167fd6d3eb25a413c05d8107fc49deb2789bef7f612582b2482804c0b0423b6638ee866040518082815260200191505060405180910390a3505050505050565b60008060009054906101000a900473ffffffffffffffffffffffffffffffffffffffff1673ffffffffffffffffffffffffffffffffffffffff163373ffffffffffffffffffffffffffffffffffffffff16141515610b8e57600080fd5b600060046000846000191660001916815260200190815260200160002060009054906101000a900473ffffffffffffffffffffffffffffffffffffffff1673ffffffffffffffffffffffffffffffffffffffff1614151515610bef57600080fd5b60046000836000191660001916815260200190815260200160002060006101000a81549073ffffffffffffffffffffffffffffffffffffffff021916905560019050919050565b6000809054906101000a900473ffffffffffffffffffffffffffffffffffffffff1673ffffffffffffffffffffffffffffffffffffffff163373ffffffffffffffffffffffffffffffffffffffff16141515610c9157600080fd5b600060149054906101000a900460ff161515610cac57600080fd5b60008060146101000a81548160ff0219169083151502179055507f7805862f689e2f13df9f062ff482ad3ad112aca9e0847911ed832e158c525b3360405160405180910390a1565b6000809054906101000a900473ffffffffffffffffffffffffffffffffffffffff1673ffffffffffffffffffffffffffffffffffffffff163373ffffffffffffffffffffffffffffffffffffffff16141515610d4f57600080fd5b600060149054906101000a900460ff16151515610d6b57600080fd5b8073ffffffffffffffffffffffffffffffffffffffff166108fc3073ffffffffffffffffffffffffffffffffffffffff16319081150290604051600060405180830381858888f19350505050158015610dc8573d6000803e3d6000fd5b5050565b600060149054906101000a900460ff1681565b600560009054906101000a900473ffffffffffffffffffffffffffffffffffffffff1681565b6000809054906101000a900473ffffffffffffffffffffffffffffffffffffffff1673ffffffffffffffffffffffffffffffffffffffff163373ffffffffffffffffffffffffffffffffffffffff16141515610e6057600080fd5b6000809054906101000a900473ffffffffffffffffffffffffffffffffffffffff1673ffffffffffffffffffffffffffffffffffffffff167ff8df31144d9c2f0f6b59d69b8b98abd5459d07f2742c4df920b25aae33c6482060405160405180910390a260008060006101000a81548173ffffffffffffffffffffffffffffffffffffffff021916908373ffffffffffffffffffffffffffffffffffffffff160217905550565b6000809054906101000a900473ffffffffffffffffffffffffffffffffffffffff1673ffffffffffffffffffffffffffffffffffffffff163373ffffffffffffffffffffffffffffffffffffffff16141515610f6257600080fd5b600060149054906101000a900460ff16151515610f7e57600080fd5b6001600060146101000a81548160ff0219169083151502179055507f6985a02210a168e66602d3235cb6db0e70f92b3ba4d376a33c0f3d9434bff62560405160405180910390a1565b600360009054906101000a900473ffffffffffffffffffffffffffffffffffffffff1681565b60046020528060005260406000206000915054906101000a900473ffffffffffffffffffffffffffffffffffffffff1681565b60028181548110151561102f57fe5b90600052602060002090600402016000915090508060000160009054906101000a900473ffffffffffffffffffffffffffffffffffffffff16908060010160009054906101000a900473ffffffffffffffffffffffffffffffffffffffff16908060020154908060030160009054906101000a900460ff16905084565b60008060009054906101000a900473ffffffffffffffffffffffffffffffffffffffff1673ffffffffffffffffffffffffffffffffffffffff163373ffffffffffffffffffffffffffffffffffffffff1614151561110957600080fd5b8160046000856000191660001916815260200190815260200160002060006101000a81548173ffffffffffffffffffffffffffffffffffffffff021916908373ffffffffffffffffffffffffffffffffffffffff1602179055506001905092915050565b60016020528160005260406000208181548110151561118857fe5b90600052602060002001600091509150505481565b6000809054906101000a900473ffffffffffffffffffffffffffffffffffffffff1673ffffffffffffffffffffffffffffffffffffffff163373ffffffffffffffffffffffffffffffffffffffff161415156111f857600080fd5b61120181611204565b50565b600073ffffffffffffffffffffffffffffffffffffffff168173ffffffffffffffffffffffffffffffffffffffff161415151561124057600080fd5b8073ffffffffffffffffffffffffffffffffffffffff166000809054906101000a900473ffffffffffffffffffffffffffffffffffffffff1673ffffffffffffffffffffffffffffffffffffffff167f8be0079c531659141344cd1fd0a4f28419497f9722a3daafe3b4186f6b6457e060405160405180910390a3806000806101000a81548173ffffffffffffffffffffffffffffffffffffffff021916908373ffffffffffffffffffffffffffffffffffffffff160217905550505600a165627a7a7230582059270af2ee0491239a1fa9c633c0f021dd0b73d8e9e0a6767d99076160ecfa790029",
  "source": "pragma solidity 0.4.24;\n\nimport \"openzeppelin-solidity/contracts/token/ERC20/ERC20.sol\";\nimport \"openzeppelin-solidity/contracts/lifecycle/Pausable.sol\";\nimport \"openzeppelin-solidity/contracts/ownership/Ownable.sol\";\n\n\ncontract DEXExchange is Ownable, Pausable {\n\n  /**\n  * @dev Details of each transfer\n  * @param contract_ contract address of ER20 token to transfer\n  * @param to_ receiving account\n  * @param amount_ number of tokens to transfer to_ account\n  * @param failed_ if transfer was successful or not\n  */\n    struct Transfer {\n        address contract_;\n        address to_;\n        uint amount_;\n        bool failed_;\n    }\n\n    /**\n    * @dev a mapping from transaction ID's to the sender address\n    * that initiates them. Owners can create several transactions\n    */\n    mapping(address => uint[]) public transactionIndexesToSender;\n\n    /**\n    * @dev a list of all transfers successful or unsuccessful\n    */\n    Transfer[] public transactions;\n    address public owner;\n\n    /**\n    * @dev list of all supported tokens for transfer\n    * @param string token symbol\n    * @param address contract address of token\n    */\n    mapping(bytes32 => address) public tokens;\n\n    ERC20 public erc20Interface;\n\n    /**\n    * @dev Event to notify if transfer successful or failed\n    * after account approval verified\n    */\n    event TransferSuccessful(address indexed from_, address indexed to_, uint256 amount_);\n    event TransferFailed(address indexed from_, address indexed to_, uint256 amount_);\n\n    /**\n    * @dev allow contract to receive funds\n    */\n    function() public payable {}\n\n    /**\n    * @dev add address of token to list of supported tokens using\n    * token symbol as identifier in mapping\n    */\n    function addNewToken(bytes32 symbol_, address address_) public onlyOwner returns (bool) {\n        tokens[symbol_] = address_;\n        return true;\n    }\n\n    /**\n    * @dev remove address of token we no more support\n    */\n    function removeToken(bytes32 symbol_) public onlyOwner returns (bool) {\n        require(tokens[symbol_] != 0x0);\n        delete (tokens[symbol_]);\n        return true;\n    }\n\n    /**\n    * @dev method that handles transfer of ERC20 tokens to other address\n    * it assumes the calling address has approved this contract\n    * as spender\n    * @param symbol_ identifier mapping to a token contract address\n    * @param to_ beneficiary address\n    * @param amount_ numbers of token to transfer\n    */\n    function transferTokens(bytes32 symbol_, address to_, uint256 amount_) public whenNotPaused {\n        require(tokens[symbol_] != 0x0);\n        require(amount_ > 0);\n        address contract_ = tokens[symbol_];\n        address from_ = msg.sender;\n        erc20Interface = ERC20(contract_);\n        // Adds a Transfer Object to the end of the transactions array of Transfer Objects\n        uint256 transactionId = transactions.push(\n            Transfer({\n                contract_:  contract_,\n                to_: to_,\n                amount_: amount_,\n                failed_: true\n            })\n        );\n\n        transactionIndexesToSender[from_].push(transactionId - 1);\n\n        // Ensures that the smart contract is not trying to send out more tokens than it is alloted\n        // by the owner of the ERC20 token. If it is, the transfer is reverted, the TransferFailed\n        // event is emitted and the boolean flag remains as failed\n        if (amount_ > erc20Interface.allowance(from_, address(this))) {\n            emit TransferFailed(from_, to_, amount_);\n            revert();\n        }\n\n        // Transfer is allowed if token amount is within allowed limits as assigned by token owner\n        erc20Interface.transferFrom(from_, to_, amount_);\n\n        // Boolean flag switched to false after successful transfer\n        transactions[transactionId - 1].failed_ = false;\n\n        // TransferSuccessful event is emitted after successful transfer\n        emit TransferSuccessful(from_, to_, amount_);\n    }\n\n    /**\n    * @dev withdraw funds from this contract\n    * @param beneficiary address to receive ether\n    */\n    function withdraw(address beneficiary) public payable onlyOwner whenNotPaused {\n        beneficiary.transfer(address(this).balance);\n    }\n}\n",
  "sourcePath": "/home/eos/Desktop/Ethereum/contracts/DEXExchange.sol",
  "compiler": {
    "name": "solc",
    "version": "0.4.24+commit.e67f0147.Emscripten.clang"
  },
  "schemaVersion": "3.0.6",
  "updatedAt": "2019-03-31T22:33:30.667Z",
  "devdoc": {
    "methods": {
      "addNewToken(bytes32,address)": {
        "details": "add address of token to list of supported tokens using token symbol as identifier in mapping"
      },
      "pause()": {
        "details": "called by the owner to pause, triggers stopped state"
      },
      "removeToken(bytes32)": {
        "details": "remove address of token we no more support"
      },
      "renounceOwnership()": {
        "details": "Allows the current owner to relinquish control of the contract."
      },
      "transferOwnership(address)": {
        "details": "Allows the current owner to transfer control of the contract to a newOwner.",
        "params": {
          "_newOwner": "The address to transfer ownership to."
        }
      },
      "transferTokens(bytes32,address,uint256)": {
        "details": "method that handles transfer of ERC20 tokens to other address it assumes the calling address has approved this contract as spender",
        "params": {
          "amount_": "numbers of token to transfer",
          "symbol_": "identifier mapping to a token contract address",
          "to_": "beneficiary address"
        }
      },
      "unpause()": {
        "details": "called by the owner to unpause, returns to normal state"
      },
      "withdraw(address)": {
        "details": "withdraw funds from this contract",
        "params": {
          "beneficiary": "address to receive ether"
        }
      }
    }
  },
  "userdoc": {
    "methods": {
      "renounceOwnership()": {
        "notice": "Renouncing to ownership will leave the contract without an owner. It will not be possible to call the functions with the `onlyOwner` modifier anymore."
      }
    }
  }
}